:100000000C942A000C9447000C9447000C94470071
:100010000C9447000C9447000C94450B0C94780BFF
:100020000C94AB0B0C94DE0B0C94A00E0C946D0E88
:100030000C9447000C9447000C9447000C94470024
:100040000C94EE160C9447000C9447000C94470057
:100050000C94470011241FBECFE5D8E0DEBFCDBF12
:1000600011E0A0E6B0E0E8E3F4E502C005900D92EF
:10007000A237B107D9F711E0A2E7B1E001C01D92A4
:10008000A038B107E1F70E944A280C941A2A0C9470
:100090000000EF92FF920F931F937B018C0120E0F1
:1000A00030E040E05FE40E94250488238CF0C80122
:1000B000B70120E030E040E05FE40E94C1010E940F
:1000C000E3049B01AC01205030404040504806C042
:1000D000C801B7010E94E3049B01AC01B901CA0148
:1000E0001F910F91FF90EF900895A0E0B0E0EBE733
:1000F000F0E00C949E29DC012B01FA019C919230D6
:1001000008F439C1EB018881823008F433C194309E
:1001100069F4843009F02FC111969C91119789815F
:10012000981709F428C1A0E6B0E025C1843009F48D
:1001300021C18230A9F4923009F01DC19A01AD01AC
:1001400088E0EA010990AE01E90109929E0181501F
:10015000C1F7E201898111969C918923818308C1AD
:10016000923009F407C112962D903C901397EB0141
:100170008A819B811496AD90BD90CD90DC901797AD
:10018000EC80FD800E811F819101281B390BB90184
:1001900037FF04C066277727621B730B6032710537
:1001A0000CF061C0121613066CF537014801062EDB
:1001B00004C096948794779467940A94D2F721E0C8
:1001C00030E040E050E004C0220F331F441F551FB1
:1001D0006A95D2F721503040404050402E213F21B7
:1001E00040235123211531054105510521F021E01E
:1001F00030E040E050E079018A01E628F72808293C
:1002000019293CC0232BD1F1260E371E350146019A
:10021000062E04C096948794779467940A94D2F734
:1002200021E030E040E050E004C0220F331F441FC3
:10023000551F6A95D2F721503040404050402A2146
:100240003B214C215D21211531054105510521F04E
:1002500021E030E040E050E059016A01A628B728CB
:10026000C828D9280BC0821593052CF01C01AA249C
:10027000BB24650103C0EE24FF24870111969C91E5
:10028000D20111968C91981709F445C0992339F041
:10029000A80197012A193B094C095D0906C0A6016E
:1002A00095012E193F09400B510B57FD08C01182D3
:1002B0003382228224833583468357831DC081E0A5
:1002C00081833382228288279927DC01821B930B4A
:1002D000A40BB50B84839583A683B7830DC0220F2F
:1002E000331F441F551F24833583468357838281E0
:1002F000938101979383828324813581468157813D
:10030000DA01C9010197A109B1098F5F9F4FAF4F72
:10031000BF4328F30BC0918333822282EA0CFB1C7B
:100320000C1D1D1DE482F5820683178383E0808304
:10033000248135814681578157FF1AC0C901AA27F8
:1003400097FDA095BA2F81709070A070B0705695EF
:10035000479537952795822B932BA42BB52B848318
:100360009583A683B7838281938101969383828349
:10037000DF0101C0D201CD01CDB7DEB7E2E10C94BF
:10038000BA29A0E2B0E0E7ECF1E00C94AA29698375
:100390007A838B839C832D833E834F835887E9E048
:1003A000EE2EF12CEC0EFD1ECE010196B7010E943F
:1003B000D4068E010F5E1F4FCE010596B8010E9434
:1003C000D4068A8991E089278A8BC701B801AE01DA
:1003D000475E5F4F0E9475000E94FF05A096E6E011
:1003E0000C94C629A0E2B0E0E8EFF1E00C94AA2951
:1003F00069837A838B839C832D833E834F835887C5
:10040000F9E0EF2EF12CEC0EFD1ECE010196B701A6
:100410000E94D4068E010F5E1F4FCE010596B801D3
:100420000E94D406C701B801AE01475E5F4F0E942B
:1004300075000E94FF05A096E6E00C94C629A0E294
:10044000B0E0E5E2F2E00C949E2969837A838B8325
:100450009C832D833E834F835887CE010196BE0136
:10046000675F7F4F0E94D406CE010596BE016F5E86
:100470007F4F0E94D4069985923088F08989823016
:10048000C8F0943019F4823051F404C0843029F457
:10049000923081F480E690E0C6C0923049F420E0CA
:1004A0009A858A89981321E02A87CE010996BBC0D4
:1004B000823049F420E09A858A89981321E02A8BBA
:1004C000CE014196B0C02D843E844F8458886D88FB
:1004D0007E888F88988CEE24FF248701AA24BB2471
:1004E000650140E050E060E070E0E0E0F0E0C10174
:1004F00081709070892BE9F0E60CF71C081D191D1E
:100500009A01AB012A0D3B1D4C1D5D1D80E090E062
:10051000A0E0B0E0E614F7040805190520F481E036
:1005200090E0A0E0B0E0BA01A901480F591F6A1F8E
:100530007B1FAA0CBB1CCC1CDD1C97FE08C081E0F5
:1005400090E0A0E0B0E0A82AB92ACA2ADB2A3196B6
:10055000E032F10549F0660C771C881C991C569412
:10056000479437942794C3CFFA85EA892B893C892D
:100570008B859C85280F391F2E5F3F4F17C0CA01FE
:1005800081709070892B61F016950795F794E79428
:1005900080E090E0A0E0B0E8E82AF92A0A2B1B2BC3
:1005A00076956795579547952F5F3F4F77FDE7CF36
:1005B0000CC0440F551F661F771F17FD4160EE0CDE
:1005C000FF1C001F111F21503040403090E05907A0
:1005D00090E0690790E4790760F32B8F3C8FDB0193
:1005E000CA018F779070A070B07080349105A1051A
:1005F000B10561F447FD0AC0E114F10401051105DC
:1006000029F0405C5F4F6F4F7F4F40781A8EFE1786
:1006100011F081E08A8F4D8F5E8F6F8F78A383E01A
:10062000898FCE0149960E94FF05A096E2E10C94C5
:10063000BA29A8E1B0E0EFE1F3E00C94A6296983C0
:100640007A838B839C832D833E834F835887B9E0C5
:10065000EB2EF12CEC0EFD1ECE010196B7010E948F
:10066000D4068E010F5E1F4FCE010596B8010E9481
:10067000D4062985223008F47EC03989323010F43E
:10068000B8017CC08A859A8989278A87243011F02D
:10069000223031F4231709F06EC060E670E06EC0BE
:1006A000343039F41D861E861F86188A1C861B86E8
:1006B00004C0323021F484E08987B7015FC02B8504
:1006C0003C858B899C89281B390B3C872B87ED84C3
:1006D000FE840F851889AD88BE88CF88D88CEA142F
:1006E000FB040C051D0540F4EE0CFF1C001F111F40
:1006F000215030403C872B8720E030E040E050E044
:1007000080E090E0A0E0B0E460E070E0EA14FB0478
:100710000C051D0540F0282B392B4A2B5B2BEA18C2
:10072000FB080C091D09B695A79597958795EE0CC2
:10073000FF1C001F111F6F5F7F4F6F31710531F775
:10074000DA01C9018F779070A070B0708034910584
:10075000A105B10561F427FD0AC0E114F10401050A
:10076000110529F0205C3F4F4F4F5F4F20782D87B8
:100770003E874F87588BBE01675F7F4FCB010E943A
:10078000FF056896EAE00C94C229A8E1B0E0EBEC22
:10079000F3E00C94AA2969837A838B839C832D834D
:1007A0003E834F83588789E0E82EF12CEC0EFD1E26
:1007B000CE010196B7010E94D4068E010F5E1F4F35
:1007C000CE010596B8010E94D4068985823040F09A
:1007D0008989823028F0C701B8010E944C0701C006
:1007E00081E06896E6E00C94C629A8E1B0E0EBEF62
:1007F000F3E00C94AA2969837A838B839C832D83ED
:100800003E834F83588789E0E82EF12CEC0EFD1EC5
:10081000CE010196B7010E94D4068E010F5E1F4FD4
:10082000CE010596B8010E94D4068985823040F039
:100830008989823028F0C701B8010E944C0701C0A5
:100840008FEF6896E6E00C94C629A8E1B0E0EBE2F1
:10085000F4E00C94AA2969837A838B839C832D838B
:100860003E834F83588789E0E82EF12CEC0EFD1E65
:10087000CE010196B7010E94D4068E010F5E1F4F74
:10088000CE010596B8010E94D4068985823040F0D9
:100890008989823028F0C701B8010E944C0701C045
:1008A0008FEF6896E6E00C94C629A8E1B0E0EBE58E
:1008B000F4E00C94AA2969837A838B839C832D832B
:1008C0003E834F83588789E0E82EF12CEC0EFD1E05
:1008D000CE010196B7010E94D4068E010F5E1F4F14
:1008E000CE010596B8010E94D4068985823040F079
:1008F0008989823028F0C701B8010E944C0701C0E5
:1009000081E06896E6E00C94C629A8E0B0E0EBE848
:10091000F4E00C94A7299B01AC0183E08983DA0100
:10092000C9018827B7FD83959927AA27BB27B82E29
:10093000211531054105510519F482E089833AC03A
:100940008823A9F0203080E0380780E0480780E85D
:10095000580729F460E070E080E09FEC30C0EE249E
:10096000FF248701E21AF30A040B150B02C0790178
:100970008A018EE1C82ED12CDC82CB82ED82FE82F0
:100980000F831887C801B7010E94B0050197181698
:10099000190684F4082E04C0EE0CFF1C001F111F62
:1009A0000A94D2F7ED82FE820F831887C81AD90AFB
:1009B000DC82CB82BA82CE0101960E94FF05289686
:1009C000E9E00C94C329ACE0B0E0E9EEF4E00C946B
:1009D000AE2969837A838B839C83CE010196BE0105
:1009E0006B5F7F4F0E94D4068D81823061F182302F
:1009F00050F1843021F48E81882351F12EC02F8153
:100A0000388537FD20C06E812F3131051CF06623FB
:100A1000F9F023C08EE190E0821B930B29853A8583
:100A20004B855C8504C056954795379527958A95E3
:100A3000D2F76623B1F050954095309521953F4F00
:100A40004F4F5F4F0EC020E030E040E050E009C063
:100A50002FEF3FEF4FEF5FE704C020E030E040E0D2
:100A600050E8B901CA012C96E2E00C94CA29A8E02A
:100A7000B0E0EDE3F5E00C94A6297B018C01611553
:100A800071058105910519F482E0898360C083E0D6
:100A900089838EE1C82ED12CDC82CB82ED82FE824E
:100AA0000F831887C801B7010E94B005FC01319778
:100AB000F7FF3BC0222733272E1B3F0B570168014E
:100AC000022E04C0D694C794B794A7940A94D2F780
:100AD00040E050E060E070E081E090E0A0E0B0E055
:100AE00004C0880F991FAA1FBB1F2A95D2F7019730
:100AF000A109B1098E219F21A023B1230097A1054F
:100B0000B10521F041E050E060E070E04A295B2946
:100B10006C297D294D835E836F8378878EE190E019
:100B20008E1B9F0B9C838B8312C0309781F00E2EFF
:100B300004C0EE0CFF1C001F111F0A94D2F7ED82B7
:100B4000FE820F831887CE1ADF0ADC82CB821A82DC
:100B5000CE0101960E94FF052896EAE00C94C22976
:100B6000EF92FF920F931F937B018C0180E0E816B8
:100B700080E0F80681E0080780E0180788F48FEF2E
:100B8000E816F1040105110531F028F088E090E045
:100B9000A0E0B0E017C080E090E0A0E0B0E012C0BC
:100BA00080E0E81680E0F80680E0080781E018079A
:100BB00028F088E190E0A0E0B0E004C080E190E09F
:100BC000A0E0B0E020E230E040E050E0281B390B2C
:100BD0004A0B5B0B04C016950795F794E7948A952A
:100BE000D2F7F701E859FF4F8081281B31094109ED
:100BF0005109C9011F910F91FF90EF900895DF9265
:100C0000EF92FF920F931F93FC01E480F580068121
:100C10001781D1808081823048F480E090E0A0E1AB
:100C2000B0E0E82AF92A0A2B1B2BA5C0843009F46E
:100C30009FC0823021F4EE24FF24870105C0E11417
:100C4000F1040105110519F4E0E0F0E096C06281BD
:100C500073819FEF623879070CF05BC022E83FEFA9
:100C6000261B370B2A3131052CF020E030E040E024
:100C700050E02AC0B801A701022E04C076956795FE
:100C8000579547950A94D2F781E090E0A0E0B0E054
:100C900004C0880F991FAA1FBB1F2A95D2F701977E
:100CA000A109B1098E219F21A023B1230097A1059D
:100CB000B10521F081E090E0A0E0B0E09A01AB0145
:100CC000282B392B4A2B5B2BDA01C9018F779070C7
:100CD000A070B07080349105A105B10539F427FFEB
:100CE00009C0205C3F4F4F4F5F4F04C0215C3F4F16
:100CF0004F4F5F4FE0E0F0E02030A0E03A07A0E087
:100D00004A07A0E45A0710F0E1E0F0E079018A0117
:100D100027C06038710564F5FB01E158FF4FD80129
:100D2000C7018F779070A070B07080349105A105D5
:100D3000B10539F4E7FE0DC080E490E0A0E0B0E03A
:100D400004C08FE390E0A0E0B0E0E80EF91E0A1FB7
:100D50001B1F17FF05C016950795F794E79431966A
:100D600087E016950795F794E7948A95D1F705C023
:100D7000EE24FF248701EFEFF0E06E2F67956627E2
:100D80006795902F9F77D794DD24D7948E2F8695E3
:100D9000492F462B582F5D29B701CA011F910F918A
:100DA000FF90EF90DF900895FC01DB0140815181BD
:100DB0002281622F6F7770E0221F2227221F9381EA
:100DC000892F880F822B282F30E0991F9927991F90
:100DD00011969C93119721153105A9F541155105DF
:100DE0006105710511F482E037C082E89FEF139628
:100DF0009C938E9312979A01AB0167E0220F331FE9
:100E0000441F551F6A95D1F783E08C930DC0220FC4
:100E1000331F441F551F12968D919C911397019774
:100E200013969C938E931297203080E0380780E0D1
:100E3000480780E4580758F314962D933D934D933B
:100E40005C93179708952F3F310579F441155105AB
:100E50006105710519F484E08C93089564FF03C063
:100E600081E08C9312C01C9210C02F573040139613
:100E70003C932E93129783E08C9387E0440F551F89
:100E8000661F771F8A95D1F7706414964D935D9312
:100E90006D937C93179708951F93DC01FB019C9140
:100EA000923008F447C08081823008F443C0943007
:100EB00051F411961C91843099F58181682F70E06E
:100EC000611B71093FC0843021F0923031F48230CF
:100ED000B9F18181882389F12DC011961C91119758
:100EE0008230F1F081811817D9F412962D913C913E
:100EF0001397828193818217930794F028173907FB
:100F0000BCF014968D919D910D90BC91A02D2481E3
:100F1000358146815781281739074A075B0718F43E
:100F2000112341F00AC082179307A407B50740F4C4
:100F3000112319F061E070E005C06FEF7FEF02C090
:100F400060E070E0CB011F910895EF92FF920F9344
:100F50001F93DF93CF93CDB7DEB72A970FB6F894E0
:100F6000DEBF0FBECDBF6B837C838D839E832F83BB
:100F7000388749875A8720916801309169014091EB
:100F80006A0150916B016B817C818D819E810E94F1
:100F9000F50318169CF56F81788589859A850E94DE
:100FA00037057B018C0120916801309169014091E6
:100FB0006A0150916B016B817C818D819E810E94C1
:100FC0001903DC01CB019C01AD01C801B7010E94EE
:100FD000C101DC01CB01BC01CD0120E03FEF4FE7B7
:100FE00057E40E941F02DC01CB01BC01CD010E942D
:100FF0004900DC01CB019A8389833FC020916801BD
:101000003091690140916A0150916B016B817C8143
:101010008D819E810E94550488236CF52091680182
:101020003091690140916A0150916B016B817C8123
:101030008D819E810E941903DC01CB019C01AD01D1
:1010400060E070E080E89FE30E94C101DC01CB0119
:10105000BC01CD0120E03FEF4FE757E40E941F02A3
:10106000DC01CB01BC01CD010E944900DC01CB01B8
:101070009A83898302C01A82198289819A812A9669
:101080000FB6F894DEBF0FBECDBFCF91DF911F9199
:101090000F91FF90EF900895DF93CF9300D000D091
:1010A000CDB7DEB78C8381E08B838C81853628F4C5
:1010B00089819A810E94320901C01B828B810F9025
:1010C0000F900F900F90CF91DF910895DF93CF9302
:1010D00000D000D0CDB7DEB78C8381E08B838C81CC
:1010E000853628F489819A810E94440901C01B82B7
:1010F0008B810F900F900F900F90CF91DF910895FB
:10110000DF93CF93CDB7DEB7AFE4B0E0EFE4F0E02C
:1011100080818E7F8C93AFE4B0E0EFE4F0E08081DB
:101120008D7F8C93AEE4B0E0EEE4F0E08081877FC9
:101130008C93AEE4B0E0EEE4F0E080818F7E8C939F
:10114000AFE4B0E0EFE4F0E080818E7F8C93AFE419
:10115000B0E0EFE4F0E080818D7F8C93AEE4B0E00E
:10116000EEE4F0E0808188608C93AEE4B0E0EEE4E1
:10117000F0E080818F7E8C93AFE4B0E0EFE4F0E0AC
:1011800080818F738C93AFE4B0E0EFE4F0E0808176
:101190008F7C8C93AFE4B0E0EFE4F0E080818C933F
:1011A000AEE4B0E0EEE4F0E080818F7B8C93AEE4BF
:1011B000B0E0EEE4F0E080818F7B8C93A9E5B0E0B5
:1011C000E9E5F0E080818B7F8C93A9E5B0E0E9E56B
:1011D000F0E0808180618C93A9E5B0E0E9E5F0E082
:1011E0008081877F8C93A9E5B0E0E9E5F0E080811C
:1011F0008F7D8C93CF91DF910895DF93CF93CDB7FF
:10120000DEB7AEE4B0E0EEE4F0E08081887F8C935E
:10121000AEE4B0E0EEE4F0E0808185608C93CF91A5
:10122000DF910895DF93CF93CDB7DEB7AEE4B0E0A2
:10123000EEE4F0E08081887F8C93CF91DF91089578
:10124000DF93CF9300D0CDB7DEB79A838983ECE4E8
:10125000F0E089819A81918380830F900F90CF91E4
:10126000DF910895DF93CF9300D0CDB7DEB79A8397
:101270008983EAE4F0E089819A81918380830F90E9
:101280000F90CF91DF910895DF93CF9300D0CDB72A
:10129000DEB79A838983E8E4F0E089819A819183BB
:1012A00080830F900F90CF91DF910895DF93CF93BC
:1012B00000D0CDB7DEB79A838983E6E4F0E0898178
:1012C0009A81918380830F900F90CF91DF91089541
:1012D000DF93CF93CDB7DEB7ECE4F0E0808191816E
:1012E000CF91DF910895DF93CF93CDB7DEB7E6E4DA
:1012F000F0E080819181CF91DF910895DF93CF93CA
:10130000CDB7DEB7A9E5B0E0E9E5F0E08081846023
:101310008C93CF91DF910895DF93CF93CDB7DEB754
:10132000A9E5B0E0E9E5F0E080818B7F8C93CF9177
:10133000DF910895DF93CF93CDB7DEB7A9E5B0E095
:10134000E9E5F0E0808180618C93CF91DF91089591
:10135000DF93CF93CDB7DEB7A9E5B0E0E9E5F0E0E4
:1013600080818F7E8C93CF91DF910895DF93CF930F
:10137000CDB7DEB7A9E5B0E0E9E5F0E080818860AF
:101380008C93CF91DF910895DF93CF93CDB7DEB7E4
:10139000A9E5B0E0E9E5F0E08081877F8C93CF910B
:1013A000DF910895DF93CF93CDB7DEB7A9E5B0E025
:1013B000E9E5F0E0808180628C93CF91DF91089520
:1013C000DF93CF93CDB7DEB7A9E5B0E0E9E5F0E074
:1013D00080818F7D8C93CF91DF910895DF93CF93A0
:1013E00000D000D00F92CDB7DEB78B8381E08A8327
:1013F000EEE4F0E08081898389818F7B89838B8112
:10140000282F30E03D832C838C819D818130910594
:1014100031F02C813D812230310549F010C08981A5
:101420008F7B8983EEE4F0E08981808309C0898124
:1014300080648983EEE4F0E08981808301C01A82B0
:101440008A810F900F900F900F900F90CF91DF91A6
:101450000895DF93CF9300D00F92CDB7DEB79B8373
:101460008A8381E089838A819B81009711F41982A4
:1014700006C08A819B81909379018093780189814C
:101480000F900F900F90CF91DF910895DF93CF933E
:1014900000D00F92CDB7DEB79B838A8381E089832A
:1014A0008A819B81009711F4198206C08A819B81F1
:1014B000909375018093740189810F900F900F9024
:1014C000CF91DF910895DF93CF9300D00F92CDB7E6
:1014D000DEB79B838A8381E089838A819B81009721
:1014E00011F4198206C08A819B81909377018093C1
:1014F000760189810F900F900F90CF91DF91089521
:10150000DF93CF9300D00F92CDB7DEB79B838A8352
:1015100081E089838A819B81009711F4198206C03A
:101520008A819B81909379018093780189810F90C2
:101530000F900F90CF91DF910895DF93CF93CDB7A8
:10154000DEB763970FB6F894DEBF0FBECDBF688BD2
:10155000798B8A8B9B8B81E08F871B821C821D82FB
:101560001E82688979898A899B890E943705DC01F6
:10157000CB01BC01CD012FE632E143E85AE30E94E2
:101580001F02DC01CB018B879C87AD87BE878B85D3
:101590009C85AD85BE852F81388549855A85BC01DE
:1015A000CD010E94A5079A83898389819A810E942F
:1015B00020090E94FD0820C0E8E5F0E08081882F26
:1015C00090E084709070959587959595879581307A
:1015D000910591F7A8E5B0E0E8E5F0E0808184604E
:1015E0008C938B819C81AD81BE810196A11DB11D23
:1015F0008B839C83AD83BE832B813C814D815E8137
:101600008F819885A985BA85281739074A075B070E
:1016100098F20E9412098F8563960FB6F894DEBF88
:101620000FBECDBFCF91DF910895DF93CF9300D050
:10163000CDB7DEB78A8381E089838A81853630F42D
:101640008A810E944C080E94FD0801C0198289818C
:101650000F900F90CF91DF910895DF93CF9300D03B
:10166000CDB7DEB78A8381E089838A81853630F4FD
:101670008A810E9466080E94FD0801C01982898142
:101680000F900F90CF91DF9108951F920F920FB698
:101690000F9211242F933F934F935F936F937F93F8
:1016A0008F939F93AF93BF93EF93FF93DF93CF936A
:1016B000CDB7DEB78091780190917901009729F03C
:1016C000E0917801F09179010995CF91DF91FF9137
:1016D000EF91BF91AF919F918F917F916F915F91AA
:1016E0004F913F912F910F900FBE0F901F90189523
:1016F0001F920F920FB60F9211242F933F934F9387
:101700005F936F937F938F939F93AF93BF93EF9369
:10171000FF93DF93CF93CDB7DEB7809174019091A3
:101720007501009729F0E0917401F0917501099518
:10173000CF91DF91FF91EF91BF91AF919F918F91E9
:101740007F916F915F914F913F912F910F900FBEBD
:101750000F901F9018951F920F920FB60F921124A1
:101760002F933F934F935F936F937F938F939F93A9
:10177000AF93BF93EF93FF93DF93CF93CDB7DEB7D4
:101780008091760190917701009729F0E0917601A0
:10179000F09177010995CF91DF91FF91EF91BF9182
:1017A000AF919F918F917F916F915F914F913F91F9
:1017B0002F910F900FBE0F901F9018951F920F92B0
:1017C0000FB60F9211242F933F934F935F936F9314
:1017D0007F938F939F93AF93BF93EF93FF93DF9389
:1017E000CF93CDB7DEB780917201909173010097CE
:1017F00029F0E0917201F09173010995CF91DF9189
:10180000FF91EF91BF91AF919F918F917F916F91D8
:101810005F914F913F912F910F900FBE0F901F90AE
:101820001895DF93CF93CDB7DEB729970FB6F8940D
:10183000DEBF0FBECDBF6A837B838C839D832E83E7
:101840003F8348875987198220916C0130916D013F
:1018500040916E0150916F016A817B818C819D81E5
:101860000E94F503181664F520916C0130916D010A
:1018700040916E0150916F016A817B818C819D81C5
:101880000E941903DC01CB019C01AD016E817F81B7
:10189000888599850E94C101DC01CB01BC01CD0185
:1018A00020E030E04FE753E40E941F02DC01CB014F
:1018B000BC01CD010E944900DC01CB0189833DC000
:1018C00020916C0130916D0140916E0150916F013A
:1018D0006A817B818C819D810E945504882364F5F7
:1018E00020916C0130916D0140916E0150916F011A
:1018F0006A817B818C819D810E941903DC01CB016F
:101900009C01AD0160E070E080E89FE30E94C101AE
:10191000DC01CB01BC01CD0120E030E04FE753E416
:101920000E941F02DC01CB01BC01CD010E944900D5
:10193000DC01CB01898301C01982898129960FB608
:10194000F894DEBF0FBECDBFCF91DF910895DF9336
:10195000CF9300D00F92CDB7DEB78B8381E08A831F
:101960008B81853650F58B81882F90E0A0E0B0E028
:10197000BC01CD010E943705DC01CB01BC01CD01CA
:101980002AE037ED43E25CE30E941F02DC01CB0159
:10199000BC01CD0120E030E04FE753E40E941F027C
:1019A000DC01CB01BC01CD010E944900DC01CB016F
:1019B000898389810E94470D01C01A828A810F9014
:1019C0000F900F90CF91DF910895DF93CF93CDB714
:1019D000DEB7A3E5B0E0E3E5F0E08081877B8C93A0
:1019E000A3E5B0E0E3E5F0E0808180648C93A3E5BB
:1019F000B0E0E3E5F0E080818F7C8C93A3E5B0E07C
:101A0000E3E5F0E0808180628C93A9E5B0E0E9E550
:101A1000F0E0808181608C93A9E5B0E0E9E5F0E039
:101A2000808182608C93CF91DF910895DF93CF9373
:101A3000CDB7DEB7A3E5B0E0E3E5F0E08081887FD5
:101A40008C93A3E5B0E0E3E5F0E0808183608C93C4
:101A5000CF91DF910895DF93CF93CDB7DEB7A3E5A4
:101A6000B0E0E3E5F0E08081887F8C93CF91DF9157
:101A70000895DF93CF930F92CDB7DEB78983E2E568
:101A8000F0E0898180830F90CF91DF910895DF93FB
:101A9000CF930F92CDB7DEB78983ECE5F0E0898173
:101AA00080830F90CF91DF910895DF93CF93CDB7CF
:101AB000DEB7E2E5F0E08081CF91DF910895DF931A
:101AC000CF93CDB7DEB7A9E5B0E0E9E5F0E08081DE
:101AD00081608C93CF91DF910895DF93CF93CDB741
:101AE000DEB7A9E5B0E0E9E5F0E080818E7F8C9378
:101AF000CF91DF910895DF93CF93CDB7DEB7A9E5FE
:101B0000B0E0E9E5F0E0808182608C93CF91DF91D5
:101B10000895DF93CF93CDB7DEB7A9E5B0E0E9E54F
:101B2000F0E080818D7F8C93CF91DF910895DF93DA
:101B3000CF9300D00F92CDB7DEB79B838A8381E02D
:101B400089838A819B81009711F4198206C08A815A
:101B50009B8190937B0180937A0189810F900F90F4
:101B60000F90CF91DF910895DF93CF9300D00F9224
:101B7000CDB7DEB79B838A8381E089838A819B818D
:101B8000009711F4198206C08A819B8190937D0190
:101B900080937C0189810F900F900F90CF91DF91FE
:101BA0000895DF93CF93CDB7DEB762970FB6F89461
:101BB000DEBF0FBECDBF6F87788B898B9A8B81E09C
:101BC0008E871A821B821C821D8219826F857889FA
:101BD00089899A890E943705DC01CB01BC01CD01BE
:101BE0002FE632E143E85AE30E941F02DC01CB01F9
:101BF0008A879B87AC87BD876E817F818885998521
:101C00000E9437059B01AC018A859B85AC85BD850B
:101C1000BC01CD010E94110C898389810E94390D7C
:101C20000E94160D1BC0E8E5F0E08081882F90E04F
:101C3000817090700097B9F3A8E5B0E0E8E5F0E0B6
:101C4000808181608C938A819B81AC81BD8101966A
:101C5000A11DB11D8A839B83AC83BD832A813B81F7
:101C60004C815D818E819F81A885B98528173907B0
:101C70004A075B07C0F20E942B0D8E8562960FB655
:101C8000F894DEBF0FBECDBFCF91DF910895DF93F3
:101C9000CF9300D0CDB7DEB78A8381E089838A8174
:101CA000853630F48A810E94A70C0E94160D01C06F
:101CB000198289810F900F90CF91DF910895DF9362
:101CC000CF93CDB7DEB7A8E5B0E0E8E5F0E08081DE
:101CD00081608C93CF91DF9108951F920F920FB680
:101CE0000F9211242F933F934F935F936F937F93A2
:101CF0008F939F93AF93BF93EF93FF93DF93CF9314
:101D0000CDB7DEB780917A0190917B01009729F0E1
:101D1000E0917A01F0917B010995CF91DF91FF91DC
:101D2000EF91BF91AF919F918F917F916F915F9153
:101D30004F913F912F910F900FBE0F901F901895CC
:101D40001F920F920FB60F9211242F933F934F9330
:101D50005F936F937F938F939F93AF93BF93EF9313
:101D6000FF93DF93CF93CDB7DEB780917C01909145
:101D70007D01009729F0E0917C01F0917D010995AA
:101D8000CF91DF91FF91EF91BF91AF919F918F9193
:101D90007F916F915F914F913F912F910F900FBE67
:101DA0000F901F9018950F931F93DF93CF93CDB78C
:101DB000DEB7A1E2B0E0E1E2F0E080818E7F8C93BB
:101DC000A1E2B0E0E1E2F0E080818D7F8C9300E25F
:101DD00010E064E070E080E090E020E030E040E07F
:101DE00050E00E94F327DC01CB0120E035E34CE01A
:101DF00050E0BC01CD010E945D299B01AC0180E057
:101E00009CE7A2E9B0E0BC01CD010E947C29DA0187
:101E1000C901F8018083A6E5B0E0E6E5F0E0808145
:101E200080648C93A6E5B0E0E6E5F0E080818E7FEB
:101E30008C93A2E2B0E0E2E2F0E080818E7F8C93AE
:101E4000A6E5B0E0E6E5F0E0808184608C93CF9178
:101E5000DF911F910F910895DF93CF930F92CDB72C
:101E6000DEB78983A2E2B0E0E2E2F0E08081282FD1
:101E70008981882F90E0880F991F822B8C93A6E58B
:101E8000B0E0E6E5F0E0808180648C93A6E5B0E008
:101E9000E6E5F0E080818E7F8C93A2E2B0E0E2E2A2
:101EA000F0E080818E7F8C93A6E5B0E0E6E5F0E07F
:101EB000808184608C930F90CF91DF910895DF93A0
:101EC000CF93CDB7DEB7A6E5B0E0E6E5F0E08081E0
:101ED00081608C93CF91DF910895DF93CF93CDB73D
:101EE000DEB7A6E5B0E0E6E5F0E080818E7F8C937A
:101EF000CF91DF910895DF93CF9300D000D00F9260
:101F0000CDB7DEB71D8219821A821B821C82A6E51C
:101F1000B0E0E6E5F0E0808180628C93A6E5B0E079
:101F2000E6E5F0E0808180688C930BC089819A811E
:101F3000AB81BC810196A11DB11D89839A83AB83BE
:101F4000BC83E6E5F0E08081881F8827881F882F02
:101F500090E09070009761F489819A81AB81BC8197
:101F600080342BE492072CE4A20720E0B207F0F2C1
:101F700089819A81AB81BC8180342BE492072CE467
:101F8000A20720E0B20719F481E08D830CC0E1E2E2
:101F9000F0E08081882F90E0887F907088309105F4
:101FA00011F082E08D838D810F900F900F900F9034
:101FB0000F90CF91DF910895DF93CF9300D000D0A1
:101FC0000F92CDB7DEB71D8219821A821B821C8246
:101FD000A6E5B0E0E6E5F0E0808180628C93A6E5BE
:101FE000B0E0E6E5F0E0808180688C930BC08981E9
:101FF0009A81AB81BC810196A11DB11D89839A8311
:10200000AB83BC83E6E5F0E08081881F8827881FCA
:10201000882F90E09070009761F489819A81AB815C
:10202000BC8180342BE492072CE4A20720E0B207A5
:10203000F0F289819A81AB81BC8180342BE49207D4
:102040002CE4A20720E0B20719F481E08D830CC0D4
:10205000E1E2F0E08081882F90E0887F907080310D
:10206000910511F083E08D838D810F900F900F907B
:102070000F900F90CF91DF910895DF93CF9300D011
:1020800000D000D0CDB7DEB78E831D8219821A82B0
:102090001B821C82E3E2F0E08E81880F8083A3E242
:1020A000B0E0E3E2F0E080818E7F8C93A6E5B0E0C3
:1020B000E6E5F0E080818F7D8C93A6E5B0E0E6E573
:1020C000F0E0808180688C930BC089819A81AB811C
:1020D000BC810196A11DB11D89839A83AB83BC830A
:1020E000E6E5F0E08081881F8827881F882F90E030
:1020F0009070009761F489819A81AB81BC818034B2
:102100002BE492072CE4A20720E0B207F0F28981C9
:102110009A81AB81BC8180342BE492072CE4A20726
:1021200020E0B20719F481E08D830CC0E1E2F0E019
:102130008081882F90E0887F90708831910511F020
:1021400084E08D838D8126960FB6F894DEBF0FBE96
:10215000CDBFCF91DF910895DF93CF9300D000D012
:1021600000D0CDB7DEB78E831D8219821A821B8202
:102170001C82E3E2F0E08E81880F8083A3E2B0E06E
:10218000E3E2F0E0808181608C93A6E5B0E0E6E5D3
:10219000F0E080818F7D8C93A6E5B0E0E6E5F0E08D
:1021A000808180688C930BC089819A81AB81BC81CE
:1021B0000196A11DB11D89839A83AB83BC83E6E59B
:1021C000F0E08081881F8827881F882F90E090701A
:1021D000009761F489819A81AB81BC8180342BE4C2
:1021E00092072CE4A20720E0B207F0F289819A81DD
:1021F000AB81BC8180342BE492072CE4A20720E061
:10220000B20719F481E08D830CC0E1E2F0E0808137
:10221000882F90E0887F90708034910511F085E0E0
:102220008D838D8126960FB6F894DEBF0FBECDBF8D
:10223000CF91DF910895DF93CF9300D000D000D0ED
:10224000CDB7DEB78E831D8219821A821B821C8253
:10225000E3E2F0E08E818083A6E5B0E0E6E5F0E021
:10226000808180688C930BC089819A81AB81BC810D
:102270000196A11DB11D89839A83AB83BC83E6E5DA
:10228000F0E08081881F8827881F882F90E0907059
:10229000009761F489819A81AB81BC8180342BE401
:1022A00092072CE4A20720E0B207F0F289819A811C
:1022B000AB81BC8180342BE492072CE4A20720E0A0
:1022C000B20719F481E08D830CC0E1E2F0E0808177
:1022D000882F90E0887F90708832910511F086E019
:1022E0008D838D8126960FB6F894DEBF0FBECDBFCD
:1022F000CF91DF910895DF93CF93CDB7DEB72797C6
:102300000FB6F894DEBF0FBECDBF9F838E831D82B4
:1023100019821A821B821C82A6E5B0E0E6E5F0E095
:10232000808180688C930BC089819A81AB81BC814C
:102330000196A11DB11D89839A83AB83BC83E6E519
:10234000F0E08081881F8827881F882F90E0907098
:10235000009761F489819A81AB81BC8180342BE440
:1023600092072CE4A20720E0B207F0F289819A815B
:10237000AB81BC8180342BE492072CE4A20720E0DF
:10238000B20719F481E08D8313C0E1E2F0E08081AF
:10239000882F90E0887F90708035910519F087E054
:1023A0008D8306C0E3E2F0E08081EE81FF818083CF
:1023B0008D8127960FB6F894DEBF0FBECDBFCF91AB
:1023C000DF910895DF93CF93CDB7DEB7A6E5B0E0F8
:1023D000E6E5F0E0808180618C93A6E5B0E0E6E57B
:1023E000F0E0808180688C93CF91DF910895DF9336
:1023F000CF930F92CDB7DEB7198285E78983EDE2DF
:10240000F0E089818083AEE2B0E0EEE2F0E080812E
:102410008C930F90CF91DF910895DF93CF930F921C
:10242000CDB7DEB7198284E68983EDE2F0E08981D9
:1024300080830F90CF91DF910895DF93CF930F9218
:10244000CDB7DEB78983EFE2F0E089818083EEE2E9
:10245000F0E080818823DCF7EFE2F0E080810F90EC
:10246000CF91DF910895DF93CF930F92CDB7DEB771
:102470008983EFE2F0E089818083EEE2F0E0808101
:102480008823DCF70F90CF91DF910895DF93CF93EE
:10249000CDB7DEB7EFE2F0E08FEF8083EEE2F0E061
:1024A00080818823DCF7EFE2F0E08081CF91DF913B
:1024B0000895DF93CF93CDB7DEB7AFE5B0E0EFE59A
:1024C000F0E0808180688C93CF91DF910895DF9355
:1024D000CF930F92CDB7DEB78983E2E3F0E080813E
:1024E00062E040E00E940613ABE5B0E0EBE5F0E00F
:1024F000808180648C93A5E5B0E0E5E5F0E0808123
:10250000982F9C7F8981892B8C930F90CF91DF919D
:102510000895DF93CF93CDB7DEB7ABE5B0E0EBE541
:10252000F0E080818F7B8C93CF91DF910895DF93D2
:10253000CF930F92CDB7DEB78983E2E3F0E08081DD
:1025400063E040E00E940613ABE5B0E0EBE5F0E0AD
:10255000808180688C93A5E5B0E0E5E5F0E08081BE
:10256000282F237F8981882F90E0880F991F880F5B
:10257000991F822B8C930F90CF91DF910895DF9359
:10258000CF93CDB7DEB7ABE5B0E0EBE5F0E080810F
:102590008F778C93CF91DF910895DF93CF930F9234
:1025A000CDB7DEB78983E8E3F0E0808162E040E008
:1025B0000E940613ABE5B0E0EBE5F0E080818062BD
:1025C0008C93A4E5B0E0E4E5F0E08081482F8981B8
:1025D000282F30E081E090E0022E02C0880F991F82
:1025E0000A94E2F7842B8C930F90CF91DF9108959A
:1025F000DF93CF93CDB7DEB7ABE5B0E0EBE5F0E02E
:1026000080818F7D8C93CF91DF910895DF93CF935D
:1026100000D000D00F92CDB7DEB789836A834B8399
:102620008981843008F0D5C08A81883008F0D1C013
:102630008981282F30E03D832C838C819D818130DE
:10264000910509F443C02C813D81223031052CF4E1
:102650008C819D81009771F0BCC02C813D8122301E
:10266000310509F45FC08C819D818330910509F4A7
:1026700085C0AFC08B818130A1F4AAE3B0E0EAE36A
:10268000F0E08081482F8A81282F30E081E090E0BF
:10269000022E02C0880F991F0A94E2F7842B8C93B4
:1026A00098C0AAE3B0E0EAE3F0E08081482F8A8195
:1026B000282F30E081E090E0022E02C0880F991FA1
:1026C0000A94E2F7809584238C9383C08B818130B8
:1026D000A1F4A7E3B0E0E7E3F0E08081482F8A812E
:1026E000282F30E081E090E0022E02C0880F991F71
:1026F0000A94E2F7842B8C936CC0A7E3B0E0E7E385
:10270000F0E08081482F8A81282F30E081E090E03E
:10271000022E02C0880F991F0A94E2F78095842345
:102720008C9357C08B818130A1F4A4E3B0E0E4E343
:10273000F0E08081482F8A81282F30E081E090E00E
:10274000022E02C0880F991F0A94E2F7842B8C9303
:1027500040C0A4E3B0E0E4E3F0E08081482F8A8148
:10276000282F30E081E090E0022E02C0880F991FF0
:102770000A94E2F7809584238C932BC08B8181305F
:10278000A1F4A1E3B0E0E1E3F0E08081482F8A8189
:10279000282F30E081E090E0022E02C0880F991FC0
:1027A0000A94E2F7842B8C9314C0A1E3B0E0E1E338
:1027B000F0E08081482F8A81282F30E081E090E08E
:1027C000022E02C0880F991F0A94E2F78095842395
:1027D0008C930F900F900F900F900F90CF91DF91EF
:1027E0000895DF93CF9300D000D0CDB7DEB78983B3
:1027F0006A838981843090F58981282F30E03C8379
:102800002B838B819C8181309105D1F02B813C8180
:10281000223031052CF48B819C81009761F01EC021
:102820002B813C812230310581F08B819C8183306A
:10283000910581F013C0EAE3F0E08A8180830EC045
:10284000E7E3F0E08A81808309C0E4E3F0E08A8175
:10285000808304C0E1E3F0E08A8180830F900F90D1
:102860000F900F90CF91DF910895DF93CF9300D019
:1028700000D00F92CDB7DEB789836A834B838981FD
:10288000843008F0D5C08A81883008F0D1C08981B1
:10289000282F30E03D832C838C819D8181309105F0
:1028A00009F443C02C813D81223031052CF48C8108
:1028B0009D81009771F0BCC02C813D812230310593
:1028C00009F45FC08C819D818330910509F485C036
:1028D000AFC08B818130A1F4ABE3B0E0EBE3F0E07B
:1028E0008081482F8A81282F30E081E090E0022EFD
:1028F00002C0880F991F0A94E2F7842B8C9398C02A
:10290000ABE3B0E0EBE3F0E08081482F8A81282F31
:1029100030E081E090E0022E02C0880F991F0A94F7
:10292000E2F7809584238C9383C08B818130A1F45E
:10293000A8E3B0E0E8E3F0E08081482F8A81282F07
:1029400030E081E090E0022E02C0880F991F0A94C7
:10295000E2F7842B8C936CC0A8E3B0E0E8E3F0E0EE
:102960008081482F8A81282F30E081E090E0022E7C
:1029700002C0880F991F0A94E2F7809584238C93F4
:1029800057C08B818130A1F4A5E3B0E0E5E3F0E02E
:102990008081482F8A81282F30E081E090E0022E4C
:1029A00002C0880F991F0A94E2F7842B8C9340C0D1
:1029B000A5E3B0E0E5E3F0E08081482F8A81282F8D
:1029C00030E081E090E0022E02C0880F991F0A9447
:1029D000E2F7809584238C932BC08B818130A1F406
:1029E000A2E3B0E0E2E3F0E08081482F8A81282F63
:1029F00030E081E090E0022E02C0880F991F0A9417
:102A0000E2F7842B8C9314C0A2E3B0E0E2E3F0E0A1
:102A10008081482F8A81282F30E081E090E0022ECB
:102A200002C0880F991F0A94E2F7809584238C9343
:102A30000F900F900F900F900F90CF91DF9108950E
:102A4000DF93CF9300D000D00F92CDB7DEB78A834B
:102A50006B8319828A81843008F0B1C08B81883001
:102A600008F0ADC08A81282F30E03D832C834C8153
:102A70005D8141305105D9F18C819D818230910574
:102A800034F42C813D812115310571F098C04C81C1
:102A90005D814230510509F44DC08C819D818330A8
:102AA000910509F46AC08BC0E9E3F0E08081482F0A
:102AB00050E08B81282F30E081E090E002C0880F49
:102AC000991F2A95E2F79A01282339238B81882FB1
:102AD00090E0A90102C0559547958A95E2F7CA0191
:102AE000009719F081E089836AC0198268C0E6E323
:102AF000F0E08081482F50E08B81282F30E081E08A
:102B000090E002C0880F991F2A95E2F79A012823C6
:102B100039238B81882F90E0A90102C055954795F4
:102B20008A95E2F7CA01009719F081E0898347C0CE
:102B3000198245C0E3E3F0E08081482F50E08B81AB
:102B4000282F30E081E090E002C0880F991F2A957D
:102B5000E2F79A01282339238B81882F90E0A9017D
:102B600002C0559547958A95E2F7CA01009719F07A
:102B700081E0898324C0198222C0E0E3F0E08081F3
:102B8000482F50E08B81282F30E081E090E002C098
:102B9000880F991F2A95E2F79A01282339238B8100
:102BA000882F90E0A90102C0559547958A95E2F7D4
:102BB000CA01009719F081E0898301C019828981D7
:102BC0000F900F900F900F900F90CF91DF9108957D
:102BD000DF93CF9300D000D0CDB7DEB789836A836F
:102BE0008981843090F58981282F30E03C832B83C4
:102BF0008B819C8181309105D1F02B813C812230E9
:102C000031052CF48B819C81009761F01EC02B81D3
:102C10003C812230310581F08B819C81833091058C
:102C200081F013C0EBE3F0E08A8180830EC0E8E31B
:102C3000F0E08A81808309C0E5E3F0E08A81808347
:102C400004C0E2E3F0E08A8180830F900F900F9040
:102C50000F90CF91DF910895DF93CF9300D000D0F4
:102C6000CDB7DEB78A8319828A81843090F58A8154
:102C7000282F30E03C832B838B819C818130910510
:102C8000D1F02B813C81223031052CF48B819C8149
:102C9000009761F01EC02B813C812230310581F00C
:102CA0008B819C818330910581F013C0E9E3F0E0D2
:102CB000808189830EC0E6E3F0E08081898309C0CA
:102CC000E3E3F0E08081898304C0E0E3F0E0808109
:102CD000898389810F900F900F900F90CF91DF9192
:102CE0000895DF93CF9300D000D0CDB7DEB78983AE
:102CF0006A838981282F30E03C832B838B819C81E0
:102D00008130910549F12B813C81223031052CF431
:102D10008B819C81009761F05AC02B813C812230CD
:102D2000310571F18B819C8183309105E9F14FC0B0
:102D3000ABE3B0E0EBE3F0E08081482F8A81282FFD
:102D400030E081E090E0022E02C0880F991F0A94C3
:102D5000E2F784278C933BC0A8E3B0E0E8E3F0E01F
:102D60008081482F8A81282F30E081E090E0022E78
:102D700002C0880F991F0A94E2F784278C9327C01A
:102D8000A5E3B0E0E5E3F0E08081482F8A81282FB9
:102D900030E081E090E0022E02C0880F991F0A9473
:102DA000E2F784278C9313C0A2E3B0E0E2E3F0E003
:102DB0008081482F8A81282F30E081E090E0022E28
:102DC00002C0880F991F0A94E2F784278C930F9012
:102DD0000F900F900F90CF91DF9108951F920F9257
:102DE0000FB60F9211248F939F93AF93BF93EF93DE
:102DF000FF93DF93CF93CDB7DEB7E0917E01F091E3
:102E00007F01A4E2B0E08D919C9191838083CF916A
:102E1000DF91FF91EF91BF91AF919F918F910F90B3
:102E20000FBE0F901F901895DF93CF9300D000D066
:102E30000F92CDB7DEB79C838B83EB81FC818181C0
:102E40008A83EB81FC8180818983A6E2B0E0E6E29F
:102E5000F0E0808180688C93A6E2B0E0E6E2F0E0EA
:102E60008081877F8C93A7E2B0E0E7E2F0E0808189
:102E7000282F2F738A81882F90E0002496958795BC
:102E80000794969587950794982F802D822B8C9385
:102E90008981882F90E001978730910568F4A6E238
:102EA000B0E0E6E2F0E08081982F987F8981892B5D
:102EB0008C9381E08D8301C01D828D810F900F90D6
:102EC0000F900F900F90CF91DF910895DF93CF93E4
:102ED00000D00F92CDB7DEB789837B836A83A7E2E8
:102EE000B0E0E7E2F0E08081982F907E8981892B25
:102EF0008C93A6E2B0E0E6E2F0E0808180648C93FF
:102F0000E6E2F0E08081882F90E0807190709595E6
:102F1000879595958795959587959595879500972C
:102F200079F3A6E2B0E0E6E2F0E0808180618C9384
:102F3000E4E2F0E08081882F90E0EA81FB819183D8
:102F40008083EA81FB81808191819C013070E5E280
:102F5000F0E08081882F90E0982F8827822B932B98
:102F6000EA81FB819183808381E00F900F900F9025
:102F7000CF91DF910895DF93CF9300D00F92CDB71B
:102F8000DEB789837B836A838A819B8190937F01EB
:102F900080937E01A7E2B0E0E7E2F0E08081982F25
:102FA000907E8981892B8C93A6E2B0E0E6E2F0E086
:102FB000808188608C93AFE5B0E0EFE5F0E0808140
:102FC00080688C93A6E2B0E0E6E2F0E08081806465
:102FD0008C9381E00F900F900F90CF91DF91089527
:102FE000DF93CF93CDB7DEB7A6E2B0E0E6E2F0E044
:102FF00080818F778C93A6E2B0E0E6E2F0E08081FA
:10300000877F8C93E7E2F0E01082A6E2B0E0E6E290
:10301000F0E08081887F8C9381E0CF91DF910895EB
:10302000DF93CF9300D00F92CDB7DEB7898389812C
:10303000282F30E03B832A838A819B818130910550
:1030400001F12A813B81223031052CF48A819B8158
:10305000009761F036C02A813B8122303105E1F0D2
:103060008A819B818330910511F12BC080E065E05E
:1030700041E00E94061380E065E040E00E943514C4
:1030800020C081E067E041E00E94061381E067E034
:1030900040E00E94351415C080E066E041E00E94E7
:1030A000061380E066E040E00E9435140AC080E02C
:1030B00064E041E00E94061380E064E040E00E948A
:1030C00035140F900F900F90CF91DF910895DF93FB
:1030D000CF93CDB7DEB780E00E94101881E00E9448
:1030E000101882E00E94101883E00E941018CF91FF
:1030F000DF910895DF93CF9300D00F92CDB7DEB765
:1031000089838981282F30E03B832A838A819B81B0
:1031100081309105D9F02A813B81223031052CF490
:103120008A819B81009761F022C02A813B812230F5
:10313000310591F08A819B818330910599F017C008
:1031400080E065E041E00E94351411C081E067E055
:1031500041E00E9435140BC080E066E041E00E942F
:10316000351405C080E064E041E00E9435140F9002
:103170000F900F90CF91DF910895DF93CF9300D000
:103180000F92CDB7DEB789838981282F30E03B834A
:103190002A838A819B8181309105D9F02A813B81E4
:1031A000223031052CF48A819B81009761F022C086
:1031B0002A813B812230310591F08A819B818330C5
:1031C000910599F017C080E065E040E00E94351459
:1031D00011C081E067E040E00E9435140BC080E040
:1031E00066E040E00E94351405C080E064E040E005
:1031F0000E9435140F900F900F90CF91DF9108959A
:10320000DF93CF9300D00F92CDB7DEB7898389814A
:10321000282F30E03B832A838A819B81813091056E
:10322000D1F02A813B81223031052CF48A819B81A7
:10323000009761F01EC02A813B812230310581F068
:103240008A819B818330910581F013C080E065E025
:103250000E9471160EC081E067E00E94711609C0DD
:1032600080E066E00E94711604C080E064E00E9485
:1032700071160F900F900F90CF91DF910895DF930B
:10328000CF9300D000D0CDB7DEB78A8319828A8170
:10329000282F30E03C832B838B819C8181309105EA
:1032A000D9F02B813C81223031052CF48B819C811B
:1032B000009761F022C02B813C812230310591F0D2
:1032C0008B819C818330910599F017C080E065E087
:1032D0000E942015898311C081E067E00E942015BB
:1032E00089830BC080E066E00E942015898305C0B9
:1032F00080E064E00E942015898389810F900F90FF
:103300000F900F90CF91DF910895DF93CF93CDB7BA
:10331000DEB780E065E040E00E94351481E067E0C0
:1033200040E00E94351480E066E040E00E943514E1
:1033300080E064E040E00E943514CF91DF91089571
:10334000DF93CF93CDB7DEB780E060E040E00E942E
:10335000061380E791E00E941417CF91DF91089542
:10336000DF93CF9300D000D00F92CDB7DEB78D831F
:103370009E012D5F3F4F8D81B9010E9466178B81A1
:103380009C81CC01A0E0B0E028E833E140E050E0CF
:10339000BC01CD010E945D29DC01CB01072E7AE042
:1033A000B695A795979587957A95D1F7702D9A83BD
:1033B000898389819A810F900F900F900F900F90C1
:1033C000CF91DF910895DF93CF93CDB7DEB76C97A0
:1033D0000FB6F894DEBF0FBECDBF80E062E041E0E3
:1033E0000E94061380E063E041E00E94061380E043
:1033F00090E0A0EAB1E4898F9A8FAB8FBC8F698D82
:103400007A8D8B8D9C8D20E030E04AE755E40E9458
:103410001F02DC01CB018D8B9E8BAF8BB88F6D892A
:103420007E898F89988D20E030E040E85FE30E943C
:10343000550488232CF481E090E09C8B8B8B3FC05B
:103440006D897E898F89988D20E03FEF4FE757E4A3
:103450000E94F50318164CF5698D7A8D8B8D9C8D25
:1034600020E030E040E251E40E941F02DC01CB0189
:10347000BC01CD010E944900DC01CB019C8B8B8BF0
:103480000FC080E991E09A8B898B89899A8901978D
:10349000F1F79A8B898B8B899C8901979C8B8B8BFD
:1034A0008B899C89009769F714C06D897E898F8903
:1034B000988D0E944900DC01CB019C8B8B8B8B8902
:1034C0009C89988B8F878F8598890197F1F7988BC6
:1034D0008F8781E060E041E00E94061381E061E0B7
:1034E00041E00E94061381E062E041E00E94061381
:1034F00081E064E041E00E94061383E30E940D1B1B
:1035000082E30E940D1B88E20E940D1B81E00E9455
:103510000D1B8CE00E940D1B80E090E0A0E2B1E466
:103520008B879C87AD87BE876B857C858D859E85C7
:1035300020E030E04AE755E40E941F02DC01CB01A5
:103540008F839887A987BA876F81788589859A85BF
:1035500020E030E040E85FE30E94550488232CF42B
:1035600081E090E09E838D833FC06F81788589855F
:103570009A8520E03FEF4FE757E40E94F5031816C5
:103580004CF56B857C858D859E8520E030E040E2A2
:1035900051E40E941F02DC01CB01BC01CD010E945D
:1035A0004900DC01CB019E838D830FC080E991E04F
:1035B0009C838B838B819C810197F1F79C838B8308
:1035C0008D819E8101979E838D838D819E81009741
:1035D00069F714C06F81788589859A850E944900B2
:1035E000DC01CB019E838D838D819E819A838983AB
:1035F00089819A810197F1F79A8389838CE00E94EF
:103600000D1B81E00E940D1B6C960FB6F894DEBF77
:103610000FBECDBFCF91DF9108950F931F93DF931E
:10362000CF93CDB7DEB7C356D0400FB6F894DEBF08
:103630000FBECDBFFE01ED59FF4F808380E063E0F8
:1036400040E00E943514FE01E15AFF4F80E090E017
:10365000A0E8BFE380839183A283B3838E01055AE0
:103660001F4FFE01E15AFF4F60817181828193817A
:1036700020E030E04AE755E40E941F02DC01CB0164
:10368000F80180839183A283B383FE01E55AFF4F43
:10369000608171818281938120E030E040E85FE3C6
:1036A0000E945504882344F4FE01E75AFF4F81E04D
:1036B00090E09183808364C0FE01E55AFF4F6081F2
:1036C00071818281938120E03FEF4FE757E40E94B0
:1036D000F50318160CF043C0FE01E15AFF4F60815C
:1036E00071818281938120E030E040E251E40E94C8
:1036F0001F02DC01CB018E01075A1F4FBC01CD0117
:103700000E944900DC01CB01F801918380831FC036
:10371000FE01E95AFF4F80E991E091838083FE0129
:10372000E95AFF4F808191810197F1F7FE01E95A33
:10373000FF4F91838083DE01A75ABF4FFE01E75AF6
:10374000FF4F80819181019711969C938E93FE018A
:10375000E75AFF4F808191810097D1F627C08E01F3
:10376000075A1F4FFE01E55AFF4F60817181828128
:1037700093810E944900DC01CB01F8019183808391
:10378000DE01AB5ABF4FFE01E75AFF4F80819181A6
:103790008D939C93FE01EB5AFF4F8081918101979D
:1037A000F1F7FE01EB5AFF4F9183808380E062E0E6
:1037B00041E00E943514FE01EF5AFF4F80E090E097
:1037C000A0E8BFE380839183A283B3838E01035B70
:1037D0001F4FFE01EF5AFF4F6081718182819381FB
:1037E00020E030E04AE755E40E941F02DC01CB01F3
:1037F000F80180839183A283B383FE01E35BFF4FD3
:10380000608171818281938120E030E040E85FE354
:103810000E945504882344F4FE01E55BFF4F81E0DC
:1038200090E09183808364C0FE01E35BFF4F608181
:1038300071818281938120E03FEF4FE757E40E943E
:10384000F50318160CF043C0FE01EF5AFF4F6081DC
:1038500071818281938120E030E040E251E40E9456
:103860001F02DC01CB018E01055B1F4FBC01CD01A6
:103870000E944900DC01CB01F801918380831FC0C5
:10388000FE01E75BFF4F80E991E091838083FE01B9
:10389000E75BFF4F808191810197F1F7FE01E75BC4
:1038A000FF4F91838083DE01A55BBF4FFE01E55B87
:1038B000FF4F80819181019711969C938E93FE0119
:1038C000E55BFF4F808191810097D1F627C08E0183
:1038D000055B1F4FFE01E35BFF4F608171818281B9
:1038E00093810E944900DC01CB01F8019183808320
:1038F000DE01A95BBF4FFE01E55BFF4F8081918137
:103900008D939C93FE01E95BFF4F8081918101972C
:10391000F1F7FE01E95BFF4F91838083FE01ED59D2
:10392000FF4F8081882F90E08071907095958795EA
:10393000959587959595879595958795982F81E08D
:1039400060E0492F0E943514FE01ED59FF4F808140
:10395000882F90E0807290709595879595958795C2
:10396000959587959595879595958795982F81E05D
:1039700061E0492F0E943514FE01ED59FF4F80810F
:10398000882F90E080749070082E892F000C881F7B
:10399000990B000C881F991F982F81E062E0492F36
:1039A0000E943514FE01ED59FF4F8081982F991F19
:1039B0009927991F81E064E0492F0E943514FE0188
:1039C000ED5BFF4F80E090E0A0E8BFE38083918350
:1039D000A283B3838E01015C1F4FFE01ED5BFF4F9D
:1039E000608171818281938120E030E04AE755E473
:1039F0000E941F02DC01CB01F80180839183A28326
:103A0000B383FE01FF96608171818281938120E002
:103A100030E040E85FE30E94550488232CF481E005
:103A200090E09EAF8DAF46C0FE01FF966081718130
:103A30008281938120E03FEF4FE757E40E94F50336
:103A4000181664F5FE01ED5BFF4F60817181828184
:103A5000938120E030E040E251E40E941F02DC014B
:103A6000CB01BC01CD010E944900DC01CB019EAF1E
:103A70008DAF0FC080E991E09CAF8BAF8BAD9CAD5B
:103A80000197F1F79CAF8BAF8DAD9EAD01979EAFC7
:103A90008DAF8DAD9EAD009769F716C0FE01FF9604
:103AA00060817181828193810E944900DC01CB0198
:103AB0009EAF8DAF8DAD9EAD9AAF89AF89AD9AADFA
:103AC0000197F1F79AAF89AF80E062E040E00E9491
:103AD000351480E090E0A0E8BFE38DAB9EABAFABC8
:103AE000B8AF6DA97EA98FA998AD20E030E04AE774
:103AF00055E40E941F02DC01CB0189AB9AABABAB52
:103B0000BCAB69A97AA98BA99CA920E030E040E868
:103B10005FE30E94550488232CF481E090E098AB89
:103B20008FA73FC069A97AA98BA99CA920E03FEF84
:103B30004FE757E40E94F50318164CF56DA97EA9CE
:103B40008FA998AD20E030E040E251E40E941F02CE
:103B5000DC01CB01BC01CD010E944900DC01CB019D
:103B600098AB8FA70FC080E991E09EA78DA78DA588
:103B70009EA50197F1F79EA78DA78FA598A90197FC
:103B800098AB8FA78FA598A9009769F714C069A96A
:103B90007AA98BA99CA90E944900DC01CB0198ABB2
:103BA0008FA78FA598A99CA78BA78BA59CA50197EC
:103BB000F1F79CA78BA780E062E041E00E943514FA
:103BC00080E090E0A0E8BFE38FA398A7A9A7BAA7D9
:103BD0006FA178A589A59AA520E030E04AE755E4D1
:103BE0000E941F02DC01CB018BA39CA3ADA3BEA34B
:103BF0006BA17CA18DA19EA120E030E040E85FE3B5
:103C00000E94550488232CF481E090E09AA389A3B4
:103C10003FC06BA17CA18DA19EA120E03FEF4FE7AB
:103C200057E40E94F50318164CF56FA178A589A5F5
:103C30009AA520E030E040E251E40E941F02DC013E
:103C4000CB01BC01CD010E944900DC01CB019AA34C
:103C500089A30FC080E991E098A38F8F8F8D98A1E1
:103C60000197F1F798A38F8F89A19AA101979AA341
:103C700089A389A19AA1009769F714C06BA17CA1BF
:103C80008DA19EA10E944900DC01CB019AA389A3CA
:103C900089A19AA19E8F8D8F8D8D9E8D0197F1F7B1
:103CA0009E8F8D8FFE01ED59FF4F8081982F91706F
:103CB00081E060E0492F0E943514FE01ED59FF4F6D
:103CC0008081882F90E08270907095958795982FCD
:103CD00081E061E0492F0E943514FE01ED59FF4F4C
:103CE0008081882F90E08470907095958795959548
:103CF0008795982F81E062E0492F0E943514FE01DC
:103D0000ED59FF4F8081882F90E0887090709595D5
:103D100087959595879595958795982F81E064E08F
:103D2000492F0E94351480E090E0A0E8BFE3898F1E
:103D30009A8FAB8FBC8F698D7A8D8B8D9C8D20E097
:103D400030E04AE755E40E941F02DC01CB018D8B75
:103D50009E8BAF8BB88F6D897E898F89988D20E07F
:103D600030E040E85FE30E94550488232CF481E0B2
:103D700090E09C8B8B8B3FC06D897E898F89988D5D
:103D800020E03FEF4FE757E40E94F50318164CF58B
:103D9000698D7A8D8B8D9C8D20E030E040E251E47E
:103DA0000E941F02DC01CB01BC01CD010E94490031
:103DB000DC01CB019C8B8B8B0FC080E991E09A8B4F
:103DC000898B89899A890197F1F79A8B898B8B89DD
:103DD0009C8901979C8B8B8B8B899C89009769F7B9
:103DE00014C06D897E898F89988D0E944900DC01FD
:103DF000CB019C8B8B8B8B899C89988B8F878F8534
:103E000098890197F1F7988B8F8780E062E040E016
:103E10000E94351480E090E0A0E8BFE38B879C8788
:103E2000AD87BE876B857C858D859E8520E030E0E3
:103E30004AE755E40E941F02DC01CB018F8398877B
:103E4000A987BA876F81788589859A8520E030E0D7
:103E500040E85FE30E94550488232CF481E090E061
:103E60009E838D833FC06F81788589859A8520E008
:103E70003FEF4FE757E40E94F50318164CF56B85AA
:103E80007C858D859E8520E030E040E251E40E94F3
:103E90001F02DC01CB01BC01CD010E944900DC0105
:103EA000CB019E838D830FC080E991E09C838B833F
:103EB0008B819C810197F1F79C838B838D819E81FF
:103EC00001979E838D838D819E81009769F714C031
:103ED0006F81788589859A850E944900DC01CB0134
:103EE0009E838D838D819E819A83898389819A8126
:103EF0000197F1F79A838983CD59DF4F0FB6F89474
:103F0000DEBF0FBECDBFCF91DF911F910F910895FE
:103F10000F931F93DF93CF93CDB7DEB7C356D04037
:103F20000FB6F894DEBF0FBECDBFFE01ED59FF4FB7
:103F3000808380E063E041E00E943514FE01E15A95
:103F4000FF4F80E090E0A0E8BFE380839183A283ED
:103F5000B3838E01055A1F4FFE01E15AFF4F608166
:103F600071818281938120E030E04AE755E40E942C
:103F70001F02DC01CB01F80180839183A283B3830C
:103F8000FE01E55AFF4F608171818281938120E0BB
:103F900030E040E85FE30E945504882344F4FE01CA
:103FA000E75AFF4F81E090E09183808364C0FE0177
:103FB000E55AFF4F608171818281938120E03FEF5C
:103FC0004FE757E40E94F50318160CF043C0FE01BA
:103FD000E15AFF4F608171818281938120E030E05E
:103FE00040E251E40E941F02DC01CB018E01075A1E
:103FF0001F4FBC01CD010E944900DC01CB01F8013B
:10400000918380831FC0FE01E95AFF4F80E991E050
:1040100091838083FE01E95AFF4F8081918101974E
:10402000F1F7FE01E95AFF4F91838083DE01A75A21
:10403000BF4FFE01E75AFF4F808191810197119692
:104040009C938E93FE01E75AFF4F808191810097E8
:10405000D1F627C08E01075A1F4FFE01E55AFF4FC8
:1040600060817181828193810E944900DC01CB01D2
:10407000F80191838083DE01AB5ABF4FFE01E75AFE
:10408000FF4F808191818D939C93FE01EB5AFF4FEE
:10409000808191810197F1F7FE01EB5AFF4F9183E7
:1040A000808380E062E041E00E943514FE01EF5A17
:1040B000FF4F80E090E0A0E8BFE380839183A2837C
:1040C000B3838E01035B1F4FFE01EF5AFF4F6081E8
:1040D00071818281938120E030E04AE755E40E94BB
:1040E0001F02DC01CB01F80180839183A283B3839B
:1040F000FE01E35BFF4F608171818281938120E04B
:1041000030E040E85FE30E945504882344F4FE0158
:10411000E55BFF4F81E090E09183808364C0FE0106
:10412000E35BFF4F608171818281938120E03FEFEB
:104130004FE757E40E94F50318160CF043C0FE0148
:10414000EF5AFF4F608171818281938120E030E0DE
:1041500040E251E40E941F02DC01CB018E01055BAD
:104160001F4FBC01CD010E944900DC01CB01F801C9
:10417000918380831FC0FE01E75BFF4F80E991E0E0
:1041800091838083FE01E75BFF4F808191810197DE
:10419000F1F7FE01E75BFF4F91838083DE01A55BB2
:1041A000BF4FFE01E55BFF4F808191810197119622
:1041B0009C938E93FE01E55BFF4F80819181009778
:1041C000D1F627C08E01055B1F4FFE01E35BFF4F59
:1041D00060817181828193810E944900DC01CB0161
:1041E000F80191838083DE01A95BBF4FFE01E55B8F
:1041F000FF4F808191818D939C93FE01E95BFF4F7E
:10420000808191810197F1F7FE01E95BFF4F918376
:104210008083FE01ED59FF4F8081882F90E08071EF
:104220009070959587959595879595958795959592
:104230008795982F81E060E0492F0E943514FE0198
:10424000ED59FF4F8081882F90E080729070959596
:104250008795959587959595879595958795959546
:104260008795982F81E061E0492F0E943514FE0167
:10427000ED59FF4F8081882F90E080749070082E58
:10428000892F000C881F990B000C881F991F982FED
:1042900081E062E0492F0E943514FE01ED59FF4F85
:1042A0008081982F991F9927991F81E064E0492FF9
:1042B0000E943514FE01ED5BFF4F80E090E0A0E826
:1042C000BFE380839183A283B3838E01015C1F4F80
:1042D000FE01ED5BFF4F608171818281938120E05F
:1042E00030E04AE755E40E941F02DC01CB01F801EF
:1042F00080839183A283B383FE01FF9660817181E5
:104300008281938120E030E040E85FE30E94550421
:1043100088232CF481E090E09EAF8DAF46C0FE0173
:10432000FF96608171818281938120E03FEF4FE7AA
:1043300057E40E94F503181664F5FE01ED5BFF4F8C
:10434000608171818281938120E030E040E251E41C
:104350000E941F02DC01CB01BC01CD010E9449007B
:10436000DC01CB019EAF8DAF0FC080E991E09CAF27
:104370008BAF8BAD9CAD0197F1F79CAF8BAF8DAD43
:104380009EAD01979EAF8DAF8DAD9EAD009769F745
:1043900016C0FE01FF9660817181828193810E9427
:1043A0004900DC01CB019EAF8DAF8DAD9EAD9AAFC4
:1043B00089AF89AD9AAD0197F1F79AAF89AF80E0E7
:1043C00062E040E00E94351480E090E0A0E8BFE3A6
:1043D0008DAB9EABAFABB8AF6DA97EA98FA998ADE1
:1043E00020E030E04AE755E40E941F02DC01CB01E7
:1043F00089AB9AABABABBCAB69A97AA98BA99CA9D9
:1044000020E030E040E85FE30E94550488232CF46C
:1044100081E090E098AB8FA73FC069A97AA98BA9EA
:104420009CA920E03FEF4FE757E40E94F5031816E0
:104430004CF56DA97EA98FA998AD20E030E040E24F
:1044400051E40E941F02DC01CB01BC01CD010E949E
:104450004900DC01CB0198AB8FA70FC080E991E048
:104460009EA78DA78DA59EA50197F1F79EA78DA765
:104470008FA598A9019798AB8FA78FA598A90097AA
:1044800069F714C069A97AA98BA99CA90E9449005F
:10449000DC01CB0198AB8FA78FA598A99CA78BA710
:1044A0008BA59CA50197F1F79CA78BA780E062E004
:1044B00041E00E94351480E090E0A0E8BFE38FA3C4
:1044C00098A7A9A7BAA76FA178A589A59AA520E062
:1044D00030E04AE755E40E941F02DC01CB018BA3C8
:1044E0009CA3ADA3BEA36BA17CA18DA19EA120E046
:1044F00030E040E85FE30E94550488232CF481E01B
:1045000090E09AA389A33FC06BA17CA18DA19EA13D
:1045100020E03FEF4FE757E40E94F50318164CF5F3
:104520006FA178A589A59AA520E030E040E251E48A
:104530000E941F02DC01CB01BC01CD010E94490099
:10454000DC01CB019AA389A30FC080E991E098A375
:104550008F8F8F8D98A10197F1F798A38F8F89A1E5
:104560009AA101979AA389A389A19AA1009769F7B3
:1045700014C06BA17CA18DA19EA10E944900DC0109
:10458000CB019AA389A389A19AA19E8F8D8F8D8D2E
:104590009E8D0197F1F79E8F8D8FFE01ED59FF4F94
:1045A0008081982F917081E060E0492F0E9435143E
:1045B000FE01ED59FF4F8081882F90E0827090704E
:1045C00095958795982F81E061E0492F0E943514D9
:1045D000FE01ED59FF4F8081882F90E0847090702C
:1045E0009595879595958795982F81E062E0492F5D
:1045F0000E943514FE01ED59FF4F8081882F90E015
:1046000088709070959587959595879595958795E0
:10461000982F81E064E0492F0E94351480E090E0FB
:10462000A0E8BFE3898F9A8FAB8FBC8F698D7A8D9D
:104630008B8D9C8D20E030E04AE755E40E941F02FC
:10464000DC01CB018D8B9E8BAF8BB88F6D897E8902
:104650008F89988D20E030E040E85FE30E945504A8
:1046600088232CF481E090E09C8B8B8B3FC06D897C
:104670007E898F89988D20E03FEF4FE757E40E94B5
:10468000F50318164CF5698D7A8D8B8D9C8D20E085
:1046900030E040E251E40E941F02DC01CB01BC018A
:1046A000CD010E944900DC01CB019C8B8B8B0FC09C
:1046B00080E991E09A8B898B89899A890197F1F732
:1046C0009A8B898B8B899C8901979C8B8B8B8B898F
:1046D0009C89009769F714C06D897E898F89988DB0
:1046E0000E944900DC01CB019C8B8B8B8B899C89C0
:1046F000988B8F878F8598890197F1F7988B8F8793
:1047000080E062E040E00E94351480E090E0A0E8A4
:10471000BFE38B879C87AD87BE876B857C858D8546
:104720009E8520E030E04AE755E40E941F02DC014C
:10473000CB018F839887A987BA876F817885898510
:104740009A8520E030E040E85FE30E94550488232A
:104750002CF481E090E09E838D833FC06F8178854B
:1047600089859A8520E03FEF4FE757E40E94F503E3
:1047700018164CF56B857C858D859E8520E030E094
:1047800040E251E40E941F02DC01CB01BC01CD01DB
:104790000E944900DC01CB019E838D830FC080E91C
:1047A00091E09C838B838B819C810197F1F79C83A3
:1047B0008B838D819E8101979E838D838D819E81C8
:1047C000009769F714C06F81788589859A850E9462
:1047D0004900DC01CB019E838D838D819E819A836C
:1047E000898389819A810197F1F79A838983CD59C9
:1047F000DF4F0FB6F894DEBF0FBECDBFCF91DF9174
:104800001F910F910895DF93CF9300D00F92CDB7F2
:10481000DEB79B838A8319820EC08981282F30E0FE
:104820008A819B81FC01E20FF31F80810E94881F17
:1048300089818F5F89838981282F30E08A819B81DC
:10484000FC01E20FF31F8081882339F70F900F904E
:104850000F90CF91DF910895DF93CF93CDB7DEB75F
:1048600081E00E940D1BCF91DF910895DF93CF93DC
:1048700000D000D00F92CDB7DEB78A836B83198248
:104880008A81282F30E03D832C838C819D8181306B
:104890009105C9F02C813D81223031052CF48C81A9
:1048A0009D81009761F01AC02C813D812230310535
:1048B00071F08C819D818330910569F00FC08B81EF
:1048C000805889830BC08B818054898307C08B817A
:1048D0008C56898303C08B818C528983898180683F
:1048E0000E940D1B0F900F900F900F900F90CF9183
:1048F000DF910895DF93CF9300D000D0CDB7DEB71E
:1049000089836A835C834B8389816A810E94362410
:104910008B819C810E9403240F900F900F900F9029
:10492000CF91DF910895DF93CF93CDB7DEB7629734
:104930000FB6F894DEBF0FBECDBF9A8B898B8989E5
:104940009A899E012F5F3F4FB9014AE050E00E94D3
:10495000D529CE0101960E94032462960FB6F894E1
:10496000DEBF0FBECDBFCF91DF910895DF93CF9310
:10497000CDB7DEB764970FB6F894DEBF0FBECDBFDC
:10498000898B6A8B5C8B4B8B89896A890E94362460
:104990008B899C899E012F5F3F4FB9014AE050E00F
:1049A0000E94D529CE0101960E94032464960FB679
:1049B000F894DEBF0FBECDBFCF91DF910895DF9396
:1049C000CF93CDB7DEB70E94D30ECF91DF9108957C
:1049D000DF93CF9300D000D0CDB7DEB79B838A831F
:1049E0006C830E947B0F8A819B81892F9927806528
:1049F000898389810E943D108A810E941B118C81CC
:104A00000E941B110E94E2110F900F900F900F90C7
:104A1000CF91DF910895DF93CF9300D000D00F9214
:104A2000CDB7DEB79B838A837D836C830E947B0F27
:104A30008A819B81892F99278065898389810E943A
:104A40003D108A810E941B110E94DC0F8A819B818C
:104A5000892F99278065898389810E94AC108C8178
:104A60009D810E947B110E94E2110F900F900F9088
:104A70000F900F90CF91DF910895DF93CF93CDB733
:104A8000DEB781E064E040E00E94061381E065E06B
:104A900040E00E94061381E066E041E00E940613B8
:104AA00081E067E040E00E9406130E940D120E9420
:104AB000DF24CF91DF910895DF93CF93CDB7DEB799
:104AC00081E064E041E00E94061381E065E041E09E
:104AD0000E94061381E066E040E00E94061381E038
:104AE00067E041E00E9406130E94F711CF91DF9129
:104AF0000895DF93CF930F92CDB7DEB78983898175
:104B00000E941D120F90CF91DF910895DF93CF93F4
:104B10000F92CDB7DEB78EE60E941D128983898180
:104B20000F90CF91DF910895DF93CF93CDB7DEB78C
:104B300083E067E040E00E94061383E066E040E027
:104B40000E94061383E065E040E00E94061383E0C4
:104B500064E040E00E94061383E063E040E00E94CE
:104B6000061382E060E00E94F113CF91DF91089577
:104B7000DF93CF93CDB7DEB761970FB6F894DEBF62
:104B80000FBECDBF888B698B82E0698941E00E94AE
:104B9000061382E0698940E00E94351480E090E0CD
:104BA000A0EAB1E48B879C87AD87BE876B857C8547
:104BB0008D859E8520E030E04AE755E40E941F0283
:104BC000DC01CB018F839887A987BA876F817885AD
:104BD00089859A8520E030E040E85FE30E94550433
:104BE00088232CF481E090E09E838D833FC06F8109
:104BF000788589859A8520E03FEF4FE757E40E944A
:104C0000F50318164CF56B857C858D859E8520E017
:104C100030E040E251E40E941F02DC01CB01BC0104
:104C2000CD010E944900DC01CB019E838D830FC022
:104C300080E991E09C838B838B819C810197F1F7C4
:104C40009C838B838D819E8101979E838D838D8133
:104C50009E81009769F714C06F81788589859A8550
:104C60000E944900DC01CB019E838D838D819E8152
:104C70009A83898389819A810197F1F79A8389833D
:104C8000E0E3F0E08081482F50E08889282F30E071
:104C900081E090E002C0880F991F2A95E2F79A01FF
:104CA000282339238889882F90E0A90102C05595CF
:104CB00047958A95E2F7CA018F878F8561960FB66F
:104CC000F894DEBF0FBECDBFCF91DF910895DF9383
:104CD000CF93CDB7DEB782E066E041E00E940613D5
:104CE000CF91DF910895DF93CF930F92CDB7DEB7C9
:104CF000898382E066E049810E9435140F90CF914C
:104D0000DF910895AF92BF92CF92DF92EF92FF9220
:104D10000F931F93DF93CF93CDB7DEB768970FB68E
:104D2000F894DEBF0FBECDBF69877A878B879C87DB
:104D30002D873E874F87588BE98AFA8A0B8B1C8B0D
:104D4000AD8ABE8ACF8AD88E2D893E894F89588DEB
:104D500089899A89AB89BC8959016A01A81AB90A5B
:104D6000CA0ADB0AD601C501BC01CD010E94850437
:104D70007B018C012D853E854F85588989859A85D3
:104D8000AB85BC8559016A01A81AB90ACA0ADB0AAF
:104D9000D601C501BC01CD010E9485049B01AC0177
:104DA000C801B7010E941903DC01CB0189839A83F2
:104DB000AB83BC836DA17EA18FA198A50E948504C1
:104DC000DC01CB01BC01CD0129813A814B815C81A1
:104DD0000E941F02DC01CB017C018D0169857A856F
:104DE0008B859C850E948504DC01CB01BC01CD0133
:104DF00029813A814B815C810E941F02DC01CB0139
:104E00009C01AD01C801B7010E94C101DC01CB01C9
:104E10007C018D0169897A898B899C890E9485042E
:104E20009B01AC01C801B7010E94F201DC01CB017A
:104E3000BC01CD010E94E304DC01CB018D839E8384
:104E4000AF83B8878D819E81AF81B885BC01CD01CC
:104E500068960FB6F894DEBF0FBECDBFCF91DF913D
:104E60001F910F91FF90EF90DF90CF90BF90AF9088
:104E70000895DF93CF93CDB7DEB72C970FB6F89494
:104E8000DEBF0FBECDBF6D837E838F83988729875A
:104E90003A874B875C876D817E818F8198852985D4
:104EA0003A854B855C850E941903DC01CB01BC016E
:104EB000CD010E944900DC01CB01BC01CD010E9463
:104EC0003705DC01CB01BC01CD0129853A854B8535
:104ED0005C850E941F02DC01CB019C01AD016D814C
:104EE0007E818F8198850E94C101DC01CB0189837D
:104EF0009A83AB83BC8389819A81AB81BC81BC01DD
:104F0000CD012C960FB6F894DEBF0FBECDBFCF916A
:104F1000DF910895DF93CF93CDB7DEB764970FB6D7
:104F2000F894DEBF0FBECDBF6D837E838F839887DD
:104F300029873A874B875C876D817E818F81988531
:104F400029853A854B855C850E941903DC01CB01DC
:104F5000BC01CD010E944900698B7A8B8B8B9C8BA5
:104F60008D819E81AF81B88529853A854B855C8589
:104F7000BC01CD010E943927DC01CB011D861E86B4
:104F80001F86188ABC01CD0120E030E040E050E0EF
:104F90000E94C503882341F021E030E040E050E06A
:104FA0002D873E874F87588B89899A89AB89BC8921
:104FB0002D853E854F855889820F931FA41FB51FED
:104FC00089839A83AB83BC8389819A81AB81BC81BD
:104FD000BC01CD0164960FB6F894DEBF0FBECDBF05
:104FE000CF91DF910895DF93CF93CDB7DEB72C97A4
:104FF0000FB6F894DEBF0FBECDBF6D837E838F8367
:10500000988729873A874B875C8781E090E0A0E00A
:10501000B0E089839A83AB83BC8389859A85AB850D
:10502000BC850097A105B10531F11DC089859A8520
:10503000AB85BC850197A109B10989879A87AB87A0
:10504000BC8789819A81AB81BC812D813E814F8152
:105050005885BC01CD010E945D29DC01CB0189830B
:105060009A83AB83BC8389859A85AB85BC85009781
:10507000A105B105D9F689819A81AB81BC81BC01BA
:10508000CD012C960FB6F894DEBF0FBECDBFCF91E9
:10509000DF910895DF93CF93CDB7DEB76E970FB64C
:1050A000F894DEBF0FBECDBF85E38E8F0E943D25F5
:1050B0000E9486258D8F8D8D813009F07CC00E94E5
:1050C00086258E8F2E8D80E090E0622F0E94E8244E
:1050D00080E090E0A0E2B1E4898F9A8FAB8FBC8F23
:1050E000698D7A8D8B8D9C8D20E030E04AE755E408
:1050F0000E941F02DC01CB018D8B9E8BAF8BB88F82
:105100006D897E898F89988D20E030E040E85FE3EB
:105110000E94550488232CF481E090E09C8B8B8BBB
:105120003FC06D897E898F89988D20E03FEF4FE7E2
:1051300057E40E94F50318164CF5698D7A8D8B8D16
:105140009C8D20E030E040E251E40E941F02DC012F
:10515000CB01BC01CD010E944900DC01CB019C8B3D
:105160008B8B0FC080E991E09A8B898B89899A8912
:105170000197F1F79A8B898B8B899C8901979C8B7E
:105180008B8B8B899C89009769F792CF6D897E897B
:105190008F89988D0E944900DC01CB019C8B8B8B01
:1051A0008B899C89988B8F878F8598890197F1F7D8
:1051B000988B8F877DCF8D8D823009F079CF9E01BE
:1051C000225E3F4F80E090E0B9010E940B2580E015
:1051D00090E0A0E2B1E48B879C87AD87BE876B85AA
:1051E0007C858D859E8520E030E04AE755E40E946D
:1051F0001F02DC01CB018F839887A987BA876F8153
:10520000788589859A8520E030E040E85FE30E9458
:10521000550488232CF481E090E09E838D833FC069
:105220006F81788589859A8520E03FEF4FE757E4C5
:105230000E94F50318164CF56B857C858D859E853F
:1052400020E030E040E251E40E941F02DC01CB018B
:10525000BC01CD010E944900DC01CB019E838D83FE
:105260000FC080E991E09C838B838B819C810197A7
:10527000F1F79C838B838D819E8101979E838D8323
:105280008D819E81009769F714C06F81788589852B
:105290009A850E944900DC01CB019E838D838D811C
:1052A0009E819A83898389819A810197F1F79A83F4
:1052B00089838E8D0E947925FBCE629FD001739FDA
:1052C000F001829FE00DF11D649FE00DF11D929FA2
:1052D000F00D839FF00D749FF00D659FF00D9927E1
:1052E000729FB00DE11DF91F639FB00DE11DF91F05
:1052F000BD01CF0111240895A1E21A2EAA1BBB1BE8
:10530000FD010DC0AA1FBB1FEE1FFF1FA217B30791
:10531000E407F50720F0A21BB30BE40BF50B661FA7
:10532000771F881F991F1A9469F76095709580956B
:1053300090959B01AC01BD01CF0108952F923F9242
:105340004F925F926F927F928F929F92AF92BF9295
:10535000CF92DF92EF92FF920F931F93CF93DF9341
:10536000CDB7DEB7CA1BDB0B0FB6F894DEBF0FBE9E
:10537000CDBF09942A88398848885F846E847D84EB
:105380008C849B84AA84B984C884DF80EE80FD80ED
:105390000C811B81AA81B981CE0FD11D0FB6F89463
:1053A000DEBF0FBECDBFED010895FB019F01E89464
:1053B0004230C4F04532B4F44A3029F497FB1EF46D
:1053C000909581959F4F642F77270E94062A805DD4
:1053D0008A330CF0895D8193CB010097A1F716F415
:1053E0005DE251931082C9010C94F629DC01FC01A5
:1053F000672F71917723E1F7329704C07C916D9309
:1054000070836291AE17BF07C8F30895AA1BBB1B38
:1054100051E107C0AA1FBB1FA617B70710F0A61BB4
:10542000B70B881F991F5A95A9F780959095BC01D5
:08543000CD010895F894FFCFAF
:105438000000000000000000000102020303030353
:10544800040404040404040405050505050505050C
:1054580005050505050505050606060606060606EC
:1054680006060606060606060606060606060606D4
:1054780006060606060606060707070707070707BC
:1054880007070707070707070707070707070707A4
:105498000707070707070707070707070707070794
:1054A8000707070707070707070707070707070784
:1054B800070707070707070708080808080808086C
:1054C8000808080808080808080808080808080854
:1054D8000808080808080808080808080808080844
:1054E8000808080808080808080808080808080834
:1054F8000808080808080808080808080808080824
:105508000808080808080808080808080808080813
:105518000808080808080808080808080808080803
:1055280008080808080808080808080808080808F3
:1055380008080808080808083737864085B1853AFA
:02554800070159
:00000001FF
